:020000040800F2
:10000000B1AA010000000000000000000000000094
:1000100000000000000000000000000000000000E0
:1000200000000000000000000000000000000000D0
:1000300000000000000000000000000000000000C0
:1000400000000000000000000000000000000000B0
:1000500000000000000000000000000000000000A0
:100060000000000000000000000000000000000090
:100070000000000000000000000000000000000080
:100080000000000000000000000000000000000070
:100090000000000000000000000000000000000060
:1000A0000000000000000000000000000000000050
:1000B000041900080000000000000000000000001B
:1000C0000000000000000000000000000000000030
:1000D0000000000000000000000000000000000020
:1000E000621900080000000000000000000000008D
:1000F0000000000000000000000000000000000000
:1001000000000000000000000000000000000000EF
:1001100000000000000000000000000000000000DF
:1001200000000000000000000000000000000000CF
:1001300000000000000000000000000000000000BF
:1001400000000000000000000000000000000000AF
:100150000000000000000000000000007370043088
:10016000170500001305C5FF8545F605637BB5003F
:1001700089816378B500170500001305C5002E9529
:1001800002859302002073A0027D970200009382F3
:1001900062E773907230972200009382E2CA7390F4
:1001A000C27E73E0C07E972200009382A2C173904A
:1001B0005230970100189381E16D17510018130117
:1001C00061E417350000130565E297050018938573
:1001D00065E3170600181306E6EC63FAC5008322F0
:1001E000050023A0550011059105E3EAC5FE17059A
:1001F0000018130525EB971500189385A5A96377BB
:10020000B500232005001105E36DB5FE73F0023241
:10021000172500001305450897200000E7806003BC
:1002200097200000E780200B0145814597000000E2
:10023000E7800029172300006700A30201A073E0F4
:0C0240000232828073F0023282800000E3
:100280000100071300000000001B0000010008042B
:1002900001000003E700F800706F776572206F6E51
:1002A00000000000737461727400000066696E697A
:1002B00073680000706C73207265737461727400EF
:1002C0006661696C00000000706C73207072657369
:1002D00073203173656300007761697420666F7203
:1002E0002066696E676572002564000066696E6449
:1002F00020612066696E6765722100007361667413
:100300007920676F206F7574000000006E6F772092
:10031000796F752063616E0025646D696E00000061
:10032000796F752063616E277420676F206F757415
:1003300000000000706C7320676F206261636B00C7
:100340006E657874000000004F4B2100706C7320C4
:1003500066696E67657200006E6F742066696E6410
:1003600020696400736166747920676F20696E008C
:100370006E6D690A00000000747261700A0000006E
:10038000000102020303030304040404040404043C
:10039000050505050505050505050505050505050D
:1003A00006060606060606060606060606060606ED
:1003B00006060606060606060606060606060606DD
:1003C00007070707070707070707070707070707BD
:1003D00007070707070707070707070707070707AD
:1003E000070707070707070707070707070707079D
:1003F000070707070707070707070707070707078D
:10040000080808080808080808080808080808086C
:10041000080808080808080808080808080808085C
:10042000080808080808080808080808080808084C
:10043000080808080808080808080808080808083C
:10044000080808080808080808080808080808082C
:10045000080808080808080808080808080808081C
:10046000080808080808080808080808080808080C
:1004700008080808080808080808080808080808FC
:10048000232D302B20000000686C4C00656667450A
:10049000464700003031323334353637383941423F
:1004A000434445460000000030313233343536379E
:1004B0003839616263646566000000005D7186C65C
:1004C000A2C4A6C2CAC04EDE52DC56DA5AD85ED6E4
:1004D00062D466D26AD06ECE97100000E780C03337
:1004E00097100000E780403CB70700201387C70B38
:1004F000130707199387C70B23A007009107E39DF4
:10050000E7FEB70500083705000893858529130520
:10051000452A97100000E780C0651305803E9710BC
:100520000000E780207E97100000E7808003854769
:10053000630FF500B7050008370500089385452BC4
:100540001305052C97100000E780A06201A0B707F3
:10055000000893854737B70700081385C72A971007
:100560000000E780006197100000E78020EB314534
:1005700097100000E780E0AC1305803E9710000064
:10058000E7804078B707002037040020B70B002031
:10059000370B00209387570237090008B70400087B
:1005A00013048446370D0020938B3B01B70C0008E1
:1005B000B70D0008370C0020130BCB243EC4930A60
:1005C00040069305892C1385842D97100000E78041
:1005D000405A29A097100000E780C07297100000D1
:1005E000E78080BB314597100000E78080A58347F6
:1005F00094001305401F93F7F70FE9FF834794001A
:1006000093F7F70FDDFF1305400697100000E78012
:10061000606F97100000E780C0C031459710000060
:10062000E78020A28347940093F7F70FD9FB971038
:100630000000E78040CE414597100000E78060A0B1
:100640008347940093F7F70F639207128349A4003E
:100650008347B40093858C2EA209BE994E865E8591
:1006600097200000E78040CE9305CD001385CD2E66
:1006700097100000E780E04F1305803E97100000C0
:10068000E7804068139A2900B3074B0103260C0A40
:100690009C431D8E635EC00613950901854541810B
:1006A00097100000E780409FB70700209387C70B93
:1006B0003E9A23200A0097100000E780E018B70751
:1006C00000081385C730B70700089385C72F971018
:1006D0000000E780004A1305007D97100000E780C6
:1006E0006062B707000813858734B7070008938551
:1006F000073497100000E780C04797100000E7809C
:10070000A01A1305803E97100000E780A05F55BD3A
:100710002245B70700089385873197200000E780BE
:10072000A0C2B70700209385C701B707000813854B
:10073000073297100000E780C0431305007D971033
:100740000000E780205CB707000813854733B70730
:1007500000089385473797100000E7808041130514
:10076000803E97100000E780E059A5BFB70700085A
:1007700013858735B70700089385C73497100000A5
:10078000E780203F1305803E97100000E7808057E8
:1007900029A097100000E780E04D97100000E78047
:1007A000A09F314597100000E780A08983479400FF
:1007B0001305401F93F7F70FE9FFB7070020938752
:1007C000C70B014721A00507630F57019443910709
:1007D000FDFAB70600209386C60B93172700B6973D
:1007E000854694C33AC697100000E78020AB314598
:1007F00097100000E780E08497100000E78060B960
:10080000314597100000E780C083B2494E859710AC
:100810000000E78040C9314597100000E780608202
:1008200003270C0A939729004E86DA9793858C2E1E
:100830005E8598C397200000E78000B1B7070008E5
:100840009305CD001385C72A97100000E78060321A
:1008500097100000E78040FF1305803E97100000CE
:10086000E780404AB707000893854736B707000876
:100870001385C73097100000E780A02F1305007D77
:1008800097100000E780004897100000E780C00143
:100890001305401F97100000E780C0461DB3F367A3
:1008A000043082801375F50F170300006700E362C0
:1008B000411106C622C426C24AC02A84B2842E89A7
:1008C00097000000E7804060CA85228597000000FD
:1008D000E780206222852244B2400249A6859244E4
:1008E0004101170300006700436593F7050193F882
:1008F000F50099C3B3E8C8008147854E3D4E930F7C
:100900008002930280042143139627003397FE0050
:100910003318CE00758F1348F8FF3396C80001CF07
:10092000032F05003378E80133660601638FF50570
:100930006389550410C18507E39867FC854E3D4ED9
:10094000930F8002930280044143139727000117FD
:100950003396FE003318EE00758E1348F8FF339778
:10096000E80001CE032F45003378E8013367070123
:10097000638FF5016389550058C18507E39767FCCC
:10098000828018C945BF10C9C5BF58C965B750C9CD
:10099000E5B70CC982804CC9828019C20CC982801B
:1009A0004CC98280B7170240135765003E97144325
:1009B0008547B397A700D58F1CC38280B717024025
:1009C000135765003E9714438547B397A700D58F0B
:1009D0001CC38280B7170240135765003E9714432B
:1009E0008547B397A70093C7F7FFF58F1CC3828095
:1009F000B707030437070809011193871720130766
:100A000067703ECC3EC23EC602C802CA3ACE02C0A1
:100A100002C4B7160240D842B7177A0009460983C4
:100A20000D8B93870720630DC7043717024050438F
:100A30005443584311820C103D8A2E96034606FFFC
:100A4000A1822D839D8A1D8B2E97AE96054833D6A5
:100A5000C70083C506FE034787FE6301050B11CD62
:100A60008946B357B600630AD500751513351500CE
:100A7000B357E6003305A040E98F3E8505618280CB
:100A8000D8421316F700635F0606D8561316F70010
:100A900063580602D856DC56454693564700A18354
:100AA000BD8BBD8A1387270085066313C700514796
:100AB000B7177A0093870720B3D7D702B387E70227
:100AC000371702405857B71602403D8B0507B3D77A
:100AD000E702D842D4424983139626003D8B6341F6
:100AE0000604BD466300D7040907631ED7021397A7
:100AF00017003E9706078583BA9705BFB2873E85E4
:100B000005618280B7160240D842D442B7173D0033
:100B1000498313962600938707903D8BE35306FC89
:100B2000136707010507B307F70201B75C451849CA
:100B30006D8F11C733F5B7003335A00082800145B2
:100B4000828093C5F5FF0CC982804111B7570040E0
:100B500006C6138707C06302E5066378A702630C25
:100B6000F506B7470140938707806314F50813051E
:100B7000E03097000000E780A0E4B2401305E030C9
:100B8000410117030000670023E5374700401307C2
:100B900007406303E50693870780631CF50413058C
:100BA000204197000000E780A0E1B24013052041FA
:100BB000410117030000670023E21305304197004D
:100BC0000000E780E0DFB240130530414101170328
:100BD0000000670063E01305404197000000E780D4
:100BE00020DEB240130540414101170300006700B9
:100BF000A3DEB2404101828013051041970000003E
:100C0000E78000DCB24013051041410117030000EA
:100C1000670083DC41113757004022C426C206C654
:100C2000930707C02A84AE84630AF50463FDA70214
:100C30006306E50437470140130707800145631742
:100C4000E4000D4597000000E780C0DA93D7140058
:100C5000AA97B3D79702B2409244C207C1831CC47B
:100C6000224441018280B7460040938606406307D4
:100C7000D500130707800145E31AE4FC09459700F6
:100C80000000E78020D7D9B75C4593F7F79F5CC594
:100C90005C45DD8D4CC582805C457D777D17F98F85
:100CA0005CC55C45DD8D4CC582801C4975777D1720
:100CB000F98F1CC91C49DD8D0CC982805C45096710
:100CC000D98F5CC582805C45DD9BDD8D4CC5828003
:100CD0005C45ED9BDD8D4CC5828093F5F51F4CC1C5
:100CE00082805C4993F7F7EFDD8D4CC982805C49C7
:100CF00093F7F7DFDD8D4CC9828093D7650093F7BA
:100D0000F73F3E9508413355B5000589828093D75A
:100D1000650093F7F73F3E9518418547B397B700B5
:100D2000D98F1CC1828013D765001377F73F93D703
:100D300065012A97AA971043944313D70501854765
:100D40003397E700758F19C73395B700718D333529
:100D5000A00082800145828013D765013A95184131
:100D6000C1818547B397B70093C7F7FFF98F1CC1BF
:100D70008280B71702409843B706FFE0B1061367B9
:100D8000170098C3D8433706F7EA7D16758FD8C386
:100D90009843B706F7FEFD16758F98C39843B706BC
:100DA000FCFFFD16758F98C3D843B70601DFFD160B
:100DB000758FD8C323A6070294433707FF00C16588
:100DC000F18E94C398C798439386F5FF3716024077
:100DD0004D8F98C311A099C61C42FD161397E700CA
:100DE000E35B07FEB717024098439316E70063D012
:100DF000060AD8433706C4DF7D16D8C3D843B716D2
:100E00000240D8C3D84313670740D8C3D843718F73
:100E1000D8C3D84337062920518FD8C3D8573D7639
:100E2000718FD8D7D8574166130616F1518FD8D78E
:100E3000984337060004518F98C39C42139747008C
:100E4000E35D07FE9C423706001037170240D18F42
:100E50009CC21C4393962700E3DD06FE144337062D
:100E60000001B7170240D18E14C398439316670050
:100E7000E3DD06FED843B7160240719BD8C3D843C2
:100E800013672700D8C3DC42A18BF5DF828001A065
:100E9000B70700D1D8438843CC43E39DE5FE828069
:100EA000370700D2230007001205B71700D2A305A9
:100EB00007003E9563F7A70023A00700C107E3EDF5
:100EC000A7FE8280B71700D285070A053E958547A1
:100ED0002300F5008280370700D28347070006050C
:100EE000798993F7170E5D8D2300A7008280B707DD
:100EF00000D203C70700914705833D8BBA8663F391
:100F0000E7009146B71700D28D070A053E95834743
:100F1000050013F6F60F2147B397D70093F7F70FA5
:100F2000118FB3D7D740B395E500CD8F93F7F70F67
:100F30002300F5008280B70700D203C707000583AE
:100F40009377C70085EFB71600D20A058D06AA96DB
:100F500083C7060021463D8B3307E640B3D7E74001
:100F60001395450093F7F70F1375F50FB397E70047
:100F7000C98F93F7F70F2380F600828001458280A6
:100F8000F327503093F707FC93E7370073905730FF
:100F90008280B707002093874709944337170020C2
:100FA000130707C93695636BE50037570020130711
:100FB00007806365A70088C336858280FD56368525
:100FC000828041111305F00E06C622C426C2971076
:100FD0000000E78080A6054597100000E780E0A5A7
:100FE0001305F00F97100000E78020A51305F00F00
:100FF00097100000E78060A41305F00F9710000021
:10100000E780A0A31305F00FB70400089384042819
:1010100097100000E78060A2138414000545A9041E
:1010200021A003450400050497100000E780E0A01C
:10103000E31994FEB240224492444101828041115E
:1010400022C406C626C24AC02A8497100000E78040
:10105000C098E36C85FE0DC87D1437090020937499
:10106000F40F13098946014411A03E849710000033
:10107000E7800099B30789001375F50F2380A70057
:1010800093071400E39384FEB24022449244024941
:101090004101828001114AC82A891305F00E06CE4B
:1010A00022CC26CA4EC6AE8997100000E780E09891
:1010B000054597100000E78040981305F00F971042
:1010C0000000E78080971305F00F97100000E7807D
:1010D000C0961305F00F97100000E78000961305E7
:1010E000F00F97100000E78040950545971000002D
:1010F000E780A094014597100000E78000941D450B
:1011000097100000E7806093314597100000E7805A
:10111000C09213548900228597100000E780E09167
:101120004A8597100000E780409193D48900268576
:1011300097100000E78060904E8593F9F90FCE94E8
:10114000D10426941379F90F97100000E780E08E00
:101150004A941355840097100000E780008E228582
:1011600097100000E780608D314597000000E78010
:1011700040EDB70700209387874603C59700F240EC
:1011800062441375F50FD2444249B2491335150034
:101190000561828041111305F00E06C6971000000C
:1011A000E780A089054597100000E78000891305B6
:1011B000F00F97100000E78040881305F00F97109C
:1011C0000000E78080871305F00F97100000E7808C
:1011D000C0861305F00F97100000E78000860545D4
:1011E00097100000E7806085014597100000E780B8
:1011F000C0840D4597100000E780208405459710B6
:101200000000E7808083014597100000E780E082BE
:10121000B2401545410117130000670003824111D8
:101220001305F00E06C622C426C297100000E78000
:10123000C080054597100000E78020801305F00F5F
:1012400097000000E780607F1305F00F9700000013
:10125000E780A07E1305F00F97000000E780E07D97
:101260001305F00F3734000897000000E780E07C9A
:10127000130444FD93047400054519A003450400BC
:10128000050497000000E780407BE31994FEB2401C
:10129000224492444101828041111305F00E06C69A
:1012A00022C426C297000000E780207905459700F8
:1012B0000000E78080781305F00F97000000E780BA
:1012C000C0771305F00F97000000E7800077130543
:1012D000F00F97000000E78040761305F00F3734D9
:1012E000000897000000E78040751304C4FD9304D4
:1012F0007400054519A0034504000504970000008B
:10130000E780A073E31994FEB24022449244410165
:10131000828041111305F00E06C622C426C2970032
:101320000000E7808071054597000000E780E070CD
:101330001305F00F97000000E78020701305F00FF1
:1013400097000000E780606F1305F00F9700000022
:10135000E780A06E1305F00FB70400089384C4283B
:1013600097000000E780606D138414000545AD040C
:1013700021A003450400050497000000E780E06B0E
:10138000E31994FEB240224492444101828041110B
:101390001305F00E06C697000000E780006A0545B9
:1013A00097000000E78060691305F00F97000000C8
:1013B000E780A0681305F00F97000000E780E06762
:1013C0001305F00F97000000E78020671305F00F6A
:1013D00097000000E7806066054597000000E78001
:1013E000C065014597000000E78020650D45970026
:1013F0000000E7808064154597000000E780E06307
:10140000014597000000E7804063B2402545410157
:10141000170300006700636241111305F00E06C652
:1014200097000000E7806061054597000000E780B5
:10143000C0601305F00F97000000E78000601305FF
:10144000F00F97000000E780405F1305F00F970052
:101450000000E780805E1305F00F97000000E78032
:10146000C05D054597000000E780205D01459700BD
:101470000000E780805C0D4597000000E780E05B9E
:10148000354597000000E780405B0145970000006C
:10149000E780A05AB24045454101170300006700AC
:1014A000C35941119357850026C2B7040020938485
:1014B000040093F7F70FA382F4001375F50F06C627
:1014C00022C44AC02383A400814701471D46B38636
:1014D000F40083C6060085073697E39AC7FE935744
:1014E000870093F7F70FA383F4001377F70F130523
:1014F000F00E2384E40097000000E78000540545C7
:1015000097000000E78060531305F00F970000007C
:10151000E780A0521305F00F97000000E780E0512C
:101520001305F00F97000000E78020511305F00F1E
:1015300097000000E780605001442549B38784008C
:1015400003C50700050497000000E780004FE3177C
:1015500024FFB24022449244024941018280411159
:1015600022C43704002013048446854706C6A3041A
:10157000F40097000000E78000A5314597000000C7
:10158000E78020AC03459400B24022441375F50F68
:101590001335150041018280411106C697F0FFFF07
:1015A000E780607D1305700597000000E780808F5D
:1015B00097000000E780009DB240410117F3FFFF54
:1015C000670023C841111305206006C697F0FFFF8E
:1015D000E780803D1305306097F0FFFFE780C03C57
:1015E0001305E06097F0FFFFE780003CB240130571
:1015F0000060410117F3FFFF6700033B411122C464
:10160000371401401305048085460D46C14506C6C2
:1016100097F0FFFFE780A02D1305048089460D4653
:10162000C14597F0FFFFE780802C130504809146A9
:101630000D46C14597F0FFFFE780602B130504803E
:10164000A1460D46C14597F0FFFFE780402A1305EC
:101650000480C1460D46C14597F0FFFFE780202971
:1016600013050480930600020D46C14597F0FFFF65
:10167000E780E02713050480930600040D46C1456A
:1016800097F0FFFFE780A02613050480930600086B
:101690000D46C14597F0FFFFE7806025130504C0A4
:1016A00089660D46C14597F0FFFFE780402413058A
:1016B00004C091660D46C14597F0FFFFE7802023E7
:1016C000130504C0A1660D46C14597F0FFFFE780F2
:1016D0000022930600200D46130504C0C14597F073
:1016E000FFFFE780C020130504C09305002097F09A
:1016F000FFFFE780802A13050480930600200D4633
:10170000E14597F0FFFFE780801E13050480224427
:10171000B240930600400D469145410117F3FFFF8B
:101720006700E31C411122C43744014013050480C3
:1017300006C626C297F0FFFFE7806041B965130532
:1017400004809385051097F0FFFFE780E04C1305B8
:101750000480814597F0FFFFE78040541305048023
:10176000814597F0FFFFE780805413050480814591
:1017700097F0FFFFE780805113050480814597F0C3
:10178000FFFFE780405613050480814597F0FFFF77
:10179000E780205613050480914597F0FFFFE7800E
:1017A000605313050480A14597F0FFFFE780E051E7
:1017B00013050480B744014097F0FFFFE7804050D5
:1017C000138404809945228597F0FFFFE78020531A
:1017D00075D92244B2401385048092449305503059
:1017E000410117F3FFFF6700C352411106C697F08E
:1017F000FFFFE780000B0D4597F0FFFFE780C00A71
:10180000B2400146854513058003410117F3FFFFF0
:101810006700430A411106C697000000E78000D820
:1018200097000000E78040DA97000000E78020FC86
:1018300097000000E780C0DCB240410117030000C0
:10184000670083EE411126C2B7140140138504C01E
:101850009305002022C406C6654497F0FFFFE78089
:10186000C013938404C093050020268597F0FFFFE2
:10187000E7806012154597000000E780A03F2685AD
:101880009305002097F0FFFFE78020117D1451455C
:1018900097000000E780004779F4B2402244924468
:1018A00041018280411126C2B7140140138504C052
:1018B0009305002022C406C6654497F0FFFFE78029
:1018C000C00D938404C093050020268597F0FFFF88
:1018D000E780600C654597000000E780A039268509
:1018E0009305002097F0FFFFE780200B7D14514502
:1018F00097000000E780004179F4B240224492440E
:10190000410182803735014041118545130505C0ED
:1019100006C697F0FFFFE780A02129C1B707002086
:101920009387470A98439306B003050798C363DC7F
:10193000E600370700201307070A144323A0070017
:10194000938716001CC3B240373501408545130507
:1019500005C0410117F3FFFF6700E31EB2404101DC
:101960008280B70505003745014041119385553008
:101970001305058006C697F0FFFFE780003B21C5F1
:10198000370700201307C70A1C439306F03F13864E
:10199000170063EDF6023745014003284580B7166E
:1019A000002093868688B69723800701B240B7054A
:1019B000050010C39385553013050580410117F3C9
:1019C000FFFF6700A339B240410182802320070056
:1019D00005468147C9B7B70700203707002083A70E
:1019E000C70A0327870A6368F700014563E3E70036
:1019F0008280938707403385E74082803707002045
:101A00001307870AB70600201C4383A6C60A0145B0
:101A10006380D702B716002093868688BE96130689
:101A2000F03F850703C506006375F6002320070015
:101A300082801CC38280411122C43744014026C2E7
:101A40009375F50FAA841305048006C61304048059
:101A500097F0FFFFE780A0289D45228597F0FFFFC4
:101A6000E780E02975D9B24022442685924441019D
:101A70008280B717014003A7C780137707F023A61A
:101A8000E78003A7C780598D23A6A78082804111D4
:101A900022C43714014026C201468965AA84130571
:101AA00004C006C697F0FFFFE78060EF8327C4807D
:101AB000154593F707F02326F4808327C480DD8C37
:101AC0002326948097000000E780C0230546A16587
:101AD000130504C097F0FFFFE78060EC1545970001
:101AE0000000E7802022130504C02244B240924443
:101AF0000146A165410117F3FFFF670043EA411169
:101B000022C43714014026C205468965AA841305FC
:101B100004C006C697F0FFFFE78060E88327C48013
:101B2000154593F707F02326F4808327C480DD8CC6
:101B30002326948097000000E780C01C0546A1651D
:101B4000130504C097F0FFFFE78060E51545970097
:101B50000000E780201B130504C02244B2409244D9
:101B60000146A165410117F3FFFF670043E34111FF
:101B700026C2AA84054506C622C42E84970000000A
:101B8000E78020F1154597000000E780A01703C506
:101B9000040019CD850497000000E78080F6154504
:101BA000850497000000E780E01503C5F4FF65F5A4
:101BB0001305000C97000000E780A0ED034504002A
:101BC00019CD050497000000E780A0F31545050432
:101BD00097000000E78000130345F4FF65F5B2406D
:101BE0002244924441018280B70500084111154604
:101BF00093850537054506C697000000E780A0E7F6
:101C0000054597100000E780E03C4111856722C43C
:101C100006C6FD172A846301F502B70500081546BC
:101C200093858537054597000000E780C0E422854D
:101C300097100000E780003A97000000E78000FB63
:101C4000E9BF411106C697F0FFFFE780C0121305F8
:101C5000700597F0FFFFE780E02497F0FFFFE78033
:101C60006032B240410117E3FFFF6700835D82806D
:101C7000797122D406D626D22A8497F0FFFFE78016
:101C800060212ACC2ECE97F0FFFFE780A0202AC447
:101C90002EC62247B2476246F2466314E600E3844A
:101CA000F6FEB707002003A50709096613060671AB
:101CB0000981B3358502814633058502970000000E
:101CC000E780A01FAA842E8497F0FFFFE780801C86
:101CD0002247B247B306E5403335D5009D8D36C85F
:101CE000B387A5403ECA4246D246E3EF86FC631462
:101CF000D400E36B96FCB25022549254456182802A
:101D0000797122D406D626D22A8497F0FFFFE78085
:101D100060182ACC2ECE97F0FFFFE780A0172AC4C8
:101D20002EC62247B2476246F2466314E600E384B9
:101D3000F6FEB707002003A507091306803E81467B
:101D40000981B33585023305850297000000E780DD
:101D5000C016AA842E8497F0FFFFE780A0132247C5
:101D6000B247B306E5403335D5009D8D36C8B387FD
:101D7000A5403ECA4246D246E3EF86FC6314D40037
:101D8000E36B96FCB250225492544561828000006D
:101D90000000000000000000000000000000000043
:101DA0000000000000000000000000000000000033
:101DB0000000000000000000000000000000000023
:101DC0005D7106C012C216C41AC61EC82ACA2ECC1D
:101DD00032CE36D03AD23ED442D646D872DA76DC0B
:101DE0007ADEFEC0F322103496C0F322003096C291
:101DF000F322407C96C4732520348A859700000026
:101E0000E780E0E08642739012349642739002308D
:101E1000A6427390427C82401242A2423243C243A5
:101E20005245E245724682561257A2573258C2585E
:101E3000525EE25E725F864F616173002030000087
:101E4000000000005D7106C012C216C41AC61EC88A
:101E50002ACA2ECC32CE36D03AD23ED442D646D83A
:101E600072DA76DC7ADEFEC073D0E87E7350F97EDB
:101E700073D0B97EF390D07E73700430B642739005
:101E8000427CA64273901234964273902234824070
:101E90001242A2423243C2435245E2457246825642
:101EA0001257A2573258C258525EE25E725F864F96
:101EB000616173002030B687B2882A832E88639DC3
:101EC000061463F9C50A4167636EE61AB707000195
:101ED0006363F63493568601E14717E7FFFF130764
:101EE000674A369703470700BA97130700021D8F0A
:101EF00019CB3398E500B357F500B318E60033E883
:101F000007013313E50013D608013355C802939631
:101F10000801C182935703013377C802B385A60233
:101F200042073368F700637AB80046989307F5FFD5
:101F3000636418016367B8303E853308B84033578F
:101F4000C8024203135303013378C802B386E60282
:101F5000420833686800637BD80046989307F7FF10
:101F60006365180179176363D8003E874205598D70
:101F70008145828001E60547B358C702416763EA9D
:101F8000E80EB707000163ECF82893D68801E14713
:101F900017E7FFFF1307073F369783460700BE96F4
:101FA00093070002958FE5EB939E08013387154157
:101FB00013DF080193DE0E01854593570301335566
:101FC000E7033377E703B306D5034207D98F63FAF4
:101FD000D700C6971307F5FF63E4170163E6D7261A
:101FE0003A85958F33D7E703420313530301B3F7C1
:101FF000E703B30ED703C207B3E7670063FBD7015C
:10200000C6979306F7FF63E51701791763E3D701D6
:1020100036874205598D828063E2D504C16763E249
:10202000F604B707000163E4F61E13D78601614882
:1020300097E7FFFF93870735BA9703C70700130E8B
:1020400000024297330EEE40631A0E0C63EDB61C8D
:102050003335C50013451500814582808145014512
:1020600082809307F00F63F3D71C13D786002148B3
:10207000C1B71307F00FC686E37C17F193D688002B
:10208000A14739B71307F00FB286E378C7E4935638
:102090008600A14799B5B398F80033D6D50013DF71
:1020A0000801335EE6033397F500B356D500558F2C
:1020B000939E080193DE0E013313F500935507013B
:1020C000B376E603B387CE03C206CD8E63FBF6007C
:1020D000C6961306FEFF63E4161763F2F616791E22
:1020E000C6969D8E33D6E60393170701C183B3F6D8
:1020F000E6033385CE02139706015D8F637BA7004D
:1021000046979307F6FF636817136376A71279164D
:10211000469793150E01098FD18D45B5B357E6004B
:10212000B396C601DD8E33D3E50013DF0601B35746
:10213000E303939E060193DE0E013398C5013357E6
:10214000E50033680701935808013316C60133735D
:10215000E303B385FE024203B368130163FBB800D7
:10216000B6981387F7FF63EAD80C63F8B80CF91731
:10217000B698B388B84033D7E8034208135808012B
:10218000B3F8E8033383EE02C208B3E5080163FB4A
:102190006500B6951308F7FF63EDD50863FB650886
:1021A0007917B695C207416FD98F1307FFFFB3F6B2
:1021B000E70093D80701718F4182B38EE602B385A1
:1021C0006540B386C60213D80E013387E802BA967B
:1021D000C2963386C80263F3E6007A9693D8060166
:1021E000469663E2C5026385C5003E8581458280CF
:1021F00041677D17F98EC206B3FEEE003315C501A7
:10220000F696E374D5FE1385F7FF8145828013D7D8
:102210000601414831BD93560601C1477DB993D6A9
:102220000801C147B5B3814505458280368701481D
:1022300001B5428785BF3E86E9BDBA871DBF328E94
:102240004DB579154698D5B97915C69759BBAA8564
:10225000814601460145170300006700C313411181
:1022600022C406C6970700009387A71B2A8491C73C
:10227000814597000000E780C01A971700009387F8
:10228000A7D688431C5591C38297228597100000DA
:10229000E78040D4411197170000938727D522C4C7
:1022A00017140000130484D41D8C26C206C60984AA
:1022B000BE8409E82244B240924441011703000061
:1022C0006700239B7D1493172400A6979C43829755
:1022D000CDB7411197170000938747D122C4171437
:1022E00000001304A4D01D8C26C24AC006C609846F
:1022F00081443E89639A840297000000E780A0949D
:1023000097170000938787CE17140000130404CE9C
:102310001D8C098481443E89639F8400B24022441D
:10232000924402494101828093972400CA979C43BA
:1023300085048297C1B793972400CA979C4385046C
:102340008297D9BF35713ECBB707008093C7F7FF9F
:102350003ECE3EC8C1779387872032C536C73AC97B
:1023600042CD46CF3ECA97E7FF17938727D32AC4AB
:102370002ACC884334012E862C0086DE36C2970094
:102380000000E780A026A24723800700F6500D61D9
:10239000828097E7FF179387E7D19C432A8E8DE7CA
:1023A00017E7FF171307C70397E7FF1723A4E7D023
:1023B00017E5FFF7130505C5BA8719C51C4117E5D1
:1023C000FF172323F50ABA87D8437D487D55634715
:1023D000E804630E0E0203A887086301080493183B
:1023E0002700C29823A0C80003230810054633160F
:1023F000E6003363C3002320681023A0D808894671
:102400006317DE0083264810558E2322C8109306DA
:1024100017000A07D4C3BA978CC701458280797127
:1024200052CC56CA5AC85EC606D622D426D24AD044
:102430004ECE62C42A8B2E8A97EAFF17938A8AC7E8
:10244000854B03A40A0011C84440832984081389DA
:10245000F4FF8A04A294635E0900B250225492549D
:102460000259F249624AD24A424BB24B224C456170
:102470008280630E0A00639509007D19F114E1BFA3
:1024800093172900CE9783A70708E39847FF584082
:10249000DC407D176318270323222401F9DF032C76
:1024A00044006388090083A6091033972B01F98E35
:1024B00089EE8297584083A70A00E31487F9E30E58
:1024C000F4FA41B723A20400D1BF93162900CE9697
:1024D0008C4283A64910758F01E75A858297D9BF30
:1024E0002E858297C1BF01114AC803A9850022CC5D
:1024F00052C45AC006CE26CA4EC656C22E84328B4D
:10250000368A63E2260B83D7C50013F7074851CB01
:1025100004408C495848AA8AB389B4408D44B38496
:10252000E4020947B3C4E402138716004E9763F32D
:10253000E400BA8493F70740C9CBA6855685971067
:102540000000E780008D2A890DE5B14723A0FA003D
:102550008357C4007D5593E707042316F400F24027
:102560006244D2444249B249224A924A024B05612E
:1025700082800C484E8697000000E780006E8357EB
:10258000C40093F7F7B793E707082316F40023284E
:10259000240144C84E99B38434412320240104C447
:1025A000528963732A01528908404A86DA85970066
:1025B0000000E780E0751C440145B38727411CC437
:1025C0001C403E992320240159BF2686568597102A
:1025D0000000E78020942A895DF90C485685970011
:1025E0000000E780807795B783D7C500717126D347
:1025F0004AD14ECF06D722D552CD56CB5AC95EC747
:1026000062C566C393F70708AA892E89B284A9C751
:102610009C49B9E39305000436C697000000E780A3
:10262000407F2320A9002328A900B24615E1B14725
:1026300023A0F9007D55BA502A549A540A59FA49F0
:102640006A4ADA4A4A4BBA4B2A4C9A4C4D6182800C
:1026500093070004232AF90093070002A30CF10258
:102660009307000302DA230DF10236CE930B5002DA
:1026700097EAFFFF938A0AE1054C294B268483479A
:10268000040099C36391770BB30C944063800C02F0
:10269000E6862686CA854E8597000000E780E0E43E
:1026A000FD57630AF51AD256E69636DA83470400D8
:1026B0006383071AFD579304140002D002D63ED25A
:1026C00002D4A301010682DC83C5040015465685A9
:1026D00097000000E780C05613841400825731E54C
:1026E00013F7070109C713070002A301E10613F757
:1026F000870009C71307B002A301E10683C60400DF
:102700001307A002638BE602B25726848146254652
:102710000347040093051400130707FD6374E606DE
:102720008DC63ED61DA0050499BF3305554133150E
:10273000AC00C98F3ED0A28441BF724793064700C8
:10274000184336CE634907023AD60347040093077D
:10275000E002631FF704034714009307A002631B02
:10276000F702F2470904138747009C433ACE63C13E
:1027700007023ED235A83307E04093E727003AD658
:102780003ED0E1B7B387670385462E84BA9749B731
:10279000FD57C5B7050402D2814681472546034748
:1027A000040093051400130707FD637CE606F1F2AD
:1027B000834504000D4617E5FFFF130525CD97005F
:1027C0000000E780E04711CD97E7FFFF938707CC34
:1027D0001D8D93070004B397A700025505045D8D76
:1027E0002AD083450400194617E5FFFF130545CAA3
:1027F00093041400230CB10297000000E7804044CA
:1028000025C597D7FFF79387E77F95E70257F247EC
:102810001377071009CF91073ECED257D2973EDAF1
:10282000B1BDB387670385462E84BA978DBF9D07D8
:10283000E19BA107D5B77808970600009386E6CA02
:102840004A860C104E8597000000E7000000FD57F7
:102850002A8AE314F5FC8357C9007D5593F70704D2
:10286000E39B07DC5255C1BB7808970600009386AE
:10287000C6C74A860C104E8597000000E78060119D
:10288000F9B7797156CA9C49BA8A984522D426D29A
:102890004ECE52CC06D64AD05AC85EC6AA892E84DD
:1028A000B284368A63D3E700BA879CC003473404F6
:1028B00019C385079CC01C4093F7070281C79C4041
:1028C00089079CC00329040013796900631A090071
:1028D000130B9401FD5B5C449840998F634CF904A1
:1028E0001C408346340493F70702B336D000A5EBAF
:1028F00013063404D2854E85829AFD576303F5048E
:102900001C4011469840998B544481446397C700FA
:10291000B384E64063D3040081441C4418486354E4
:10292000F700998FBE94014969047D5B6398240583
:10293000014509A885465A86D2854E85829A631E2E
:1029400075017D55B250225492540259F249624A9F
:10295000D24A424BB24B456182800509ADBF330775
:10296000D40013060003A301C7040347540493874C
:102970001600A2978906A381E7049DBF854622869B
:10298000D2854E85829AE30E65FB050945B77971BC
:1029900022D426D24AD04ECE06D652CC56CA5AC8D7
:1029A000B68983C685019307E0063289AA842E84FE
:1029B000138635046383F61E63E2D7069307300659
:1029C0006382F60A63EDD700638D061E93078005C8
:1029D0006389F616930A24042301D40469A8930793
:1029E00040066386F60093079006E395F6FE1C40CA
:1029F000084393F6070893054500C1C21C410CC368
:102A000063D807001307D002B307F040A301E40422
:102A100097E6FFFF938646A8294765A093073007EE
:102A20006385F61A63EFD7009307F006638FF60409
:102A300093070007E390F6FA9C4193E707029CC1D5
:102A400009A8930750076382F60493078007E3936E
:102A5000F6F893078007A302F40497E6FFFF938636
:102A6000E6A4F5A01C43938A2504938647009C4363
:102A700014C32381F50485479DAA93F607041C41DE
:102A80000CC3BDDEC207C187A5BF0C401C4313F8B1
:102A90000508138547006305080008C39C4339A057
:102AA00093F5050408C3FDD983D707001307F00683
:102AB000638DE60C97E6FFFF9386069E2947A301E8
:102AC00004044C400CC463C5050008406D9908C05F
:102AD00099E3B28A91CDB28AB3F5E702FD1AB695B1
:102AE00083C505002380BA00B3D5E70263F5E70A82
:102AF000A147631EF7001C40858B91CB58401C48B2
:102B000063C7E70093070003A38FFAFEFD1A33069D
:102B1000564110C84E87CA867000A2852685970048
:102B20000000E78040D67D5A6317450D7D55B250B1
:102B3000225492540259F249624AD24A424B4561A8
:102B40008280A382D50497E6FFFF9386E6940C402B
:102B5000084313F805081C4111056300080208C367
:102B600013F7150001C793E505020CC04147A1FB0F
:102B70000C4093F5F5FD0CC099B713F8050408C394
:102B8000E30008FEC207C183E1BF97E6FFFF93861B
:102B9000A69021472DB7AE8781B794411C43CC49FD
:102BA00013F80608138547006306080008C39C4312
:102BB0008CC301A808C393F606049C43F5DA23905E
:102BC000B70023280400B28AB1B71C43D041814525
:102BD0009386470014C383AA070056859700000018
:102BE000E780000601C53305554148C05C401CC85C
:102BF000A301040405B714485686CA852685829920
:102C0000E30645F31C40898B8DE7B2474844E35007
:102C1000F5F23E8529BF85465686CA852685829966
:102C2000E30665F1050A5C443247998FE345FAFEF5
:102C3000E9BF014A930A94017D5BF5B793F5F50F5F
:102C40002A966314C5000145828083470500E38D01
:102C5000B7FE0505FDB7B3C7A5008D8B3307C500CB
:102C600081E78D4763EEC700AA876370E50A83C6D4
:102C7000050085078505A38FD7FEE3EAE7FE82807E
:102C800093763500AA8791CA83C605008507850516
:102C9000A38FD7FE93F63700FDB79376C7FF138651
:102CA00006FE63F0C70683A3050083A2450083AF39
:102CB000850003AFC50083AE050103AE450103A344
:102CC000850183A8C5019385450223A0770003A849
:102CD000C5FF23A2570023A4F70123A6E70123A8D9
:102CE000D70123AAC70123AC670023AE170193873E
:102CF000470223AE07FF75B790419107910523AEB8
:102D0000C7FEE3EBD7FEE3E4E7F6828063F3A504B6
:102D1000B386C500637FD5029345F6FF8147FD1753
:102D20006393F50082803387F600034807003387FA
:102D3000C7002A9723000701DDB73387F5008346D4
:102D400007003307F50085072300D700E317F6FED9
:102D500082808147E5BFDDC983A7C5FF411122C439
:102D600006C626C21384C5FF63D307003E94AA8417
:102D700097000000E780802497D7FF179387C73319
:102D80009C4385E32322040097D7FF1723A68732AD
:102D90002244B24026859244410117030000670097
:102DA0000322637EF40014403307D4006396E700E7
:102DB0009843DC43369718C05CC0F9B7BA87D8434C
:102DC00019C3E37DE4FE94433386D700631F860076
:102DD0001040B29694C33386D700E31BC7FA104362
:102DE0005843B29694C3D8C365B76375C400B1475E
:102DF0009CC079BF1040B306C4006316D7001443CB
:102E00005843B29614C058C0C0C359B7828001114C
:102E100026CA93843500F19806CE22CC4AC84EC605
:102E2000A104B14763F3F406B14463E2B4062A890E
:102E300097000000E780801897D7FF179387C72770
:102E400098433A8439EC97D7FF17938727279C43F9
:102E500099EB81454A8597000000E780C01297D71B
:102E6000FF1723ADA724A6854A8597000000E780B9
:102E70008011FD59631F3507B1472320F9004A85AA
:102E800097000000E780A01329A0E3D004FAB1471F
:102E90001CC10145F2406244D2444249B249056135
:102EA00082801C40858F63C30704AD4663F6F6003D
:102EB0001CC03E9404C001A85C406317870217D76A
:102EC000FF17232BF71E4A8597000000E780200F8D
:102ED0001305B4009307440061993307F5405DDBA7
:102EE0003A94898F1CC07DB75CC3F1BF22874040F4
:102EF00091BF130435007198E30E85FAB305A44021
:102F00004A8597000000E7800008E31535FBADB760
:102F100091E5B285170300006700A3EF011122CCF1
:102F200006CE26CA4AC84EC6328411EE970000006B
:102F3000E780A0E20149F24062444A85D244424916
:102F4000B24905618280AE84AA8997000000E780BB
:102F500020072689E37185FEA2854E859700000033
:102F6000E78020EB2A8961D9A68522869700000098
:102F7000E780A0CEA6854E8597000000E780E0DDC3
:102F80005DBF411122C42A842E8597E7FF1723AF26
:102F900007CE06C697E0FFFFE780E0FFFD57631905
:102FA000F50097E7FF17938767CE9C4391C31CC03A
:102FB000B2402244410182808280828083A7C5FF83
:102FC0001385C7FF63D50700AA959C413E95828073
:022FD00001A05E
:072FD40001000402010008E6
:072FDC0001000402020009DC
:042FE4002C0000209D
:102FE8000100060601000B00190000007468652046
:102FF80069643A0000000000000000007468652061
:1030080074696D653A0000000000000000000000CF
:1030180000000000000000000000000000000000A8
:103028000000000000000000000000000000000098
:103038000000000000000000000000000000000088
:103048000000000000000000000000000000000078
:103058000000000000000000000000000000000068
:103068000000000000000000000000000000000058
:1030780000F36F06900C00202C00002000000000D8
:040000050800015C92
:00000001FF
